:100000000C943E000C9448000C9448000C9448005A
:100010000C9448000C9448000C9448000C94480040
:100020000C9448000C9448000C9448000C94480030
:100030000C9448000C9448000C9448000C94480020
:100040000C9448000C9448000C9448000C94480010
:100050000C9448000C9448000C9448000C94480000
:100060000C9448000C9448000C9448000C944800F0
:100070000C9448000C9448000C94480011241FBEB6
:10008000CFEFD0E1DEBFCDBF0E944A000C94A500A7
:100090000C9400008CE78AB95E9A5B9888E091E046
:1000A00097FF4DC05A9A5D9AEBEDF5E03197F1F765
:1000B00000C000005D98EBEDF5E03197F1F700C06E
:1000C0000000990F815061F788E097E797FF39C0EA
:1000D0005A9A5D9AEBEDF5E03197F1F700C0000018
:1000E0005D98EBEDF5E03197F1F700C00000990F56
:1000F000815061F788E097E797FF25C05A9A5D9A8B
:10010000EBEDF5E03197F1F700C000005D98EBED05
:10011000F5E03197F1F700C00000990F815061F7C9
:100120005C9A87E99AE30197F1F700C000005C98B8
:10013000E7E9FAE33197F1F700C00000AFCF5A9832
:0E014000B2CF5A98C6CF5A98DACFF894FFCFB4
:00000001FF
