:100000000C943E000C9448000C9448000C9448005A
:100010000C9448000C9448000C9448000C94480040
:100020000C9448000C9448000C9448000C94480030
:100030000C9448000C9448000C9448000C94480020
:100040000C9448000C9448000C9448000C94480010
:100050000C9448000C9448000C9448000C94480000
:100060000C9448000C9448000C9448000C944800F0
:100070000C9448000C9448000C94480011241FBEB6
:10008000CFEFD0E1DEBFCDBF0E944A000C94A400A8
:100090000C94000083E087B98FEF81B980E882B9C2
:1000A0008FE98AB95A9A5C9820E888E09AEA97FF23
:1000B00047C0589A599AEFE9FFE03197F1F700C02D
:1000C00000005998EFE9FFE03197F1F700C0000018
:1000D000990F815061F788E095E597FF33C0589AF2
:1000E000599AEFE9FFE03197F1F700C00000599805
:1000F000EFE9FFE03197F1F700C00000990F815060
:1001000061F75B9A8FE99FE00197F1F700C000006B
:100110005B98EFE9FFE03197F1F700C0000082B192
:10012000869582B9FFEF31EE84E0F1503040804097
:10013000E1F700C0000082B18111B7CF22B9B5CF7D
:0C0140005898B8CF5898CCCFF894FFCF57
:00000001FF
